S01600004D61636B204265766572616765732E73726563DE
S1130000CBC00000E8C00000E6C00000E4C000006F
S1130010E2C00000E0C00000DEC00000DCC0000060
S1130020DAC00000D8C000000C94770BD4C00000E4
S1130030D2C00000D0C00000CEC00000CCC0000080
S11300400C945C0BC8C00000C6C00000C4C0000013
S1130050C2C00000C0C00000BEC00000BCC00000A0
S1130060BAC00000B8C00000B6C00000B4C00000B0
S1130070B2C00000B0C00000AEC00000ACC00000C0
S1130080AAC00000A8C00000A6C000006B0D6E0D41
S1130090710D730D750D770D790D7B0D8D0D004070
S11300A07A10F35A00A0724E18090010A5D4E80083
S11300B000E87648170000E40B54020000CA9A3B9B
S11300C0000000E1F5050000809698000000404221
S11300D00F000000A08601000000102700000000AF
S11300E0E803000000006400000000000A000000B3
S11300F000000100000000002C76D888DC674F085F
S113010023DFC1DFAE59E1B1B796E5E3E453C63A64
S1130110E651997696E8E6C28426EB898C9B62EDDB
S1130120407C6FFCEFBC9C9F40F2BAA56FA5F49095
S1130130055A2AF75C936B6CF9676DC11BFCE0E40C
S11301400D47FEF520E6B500D0ED902E0300943562
S113015077050080841E080000204E0A000000C8B5
S11301600C333333330F986E12831141EF8D211406
S1130170893BE65516CFFEE6DB18D1844B381BF7D6
S11301807C1D901DA4BBE424203284725E22810075
S1130190C9F124ECA1E53D2711241FBECFEFD0E126
S11301A0DEBFCDBF15E0A0E0B1E0E0EBF4E200E09B
S11301B00BBF02C007900D92A637B107D9F725E00F
S11301C0A6E7B5E001C01D92A43CB207E1F70E9486
S11301D0B50B0C94561214CFC09A8FE493EC01978C
S11301E0F1F700C00000C09808958FEF8ABB87BB69
S11301F018BA8FE38BBBF0DF8FE08BBBEDDF8FE1B1
S11302008BBBEACF089581E08BBBE6CF0895C29AF9
S11302108BBBE2DF88B3887F88BB08950F931F935D
S1130220CF93FC018081882351F08F01C0E0EFDF80
S1130230CF5FF801EC0FF11D80818111F8CFCF91D0
S11302401F910F9108950F931F93CF93DF93CDB711
S1130250DEB72A970FB6F894DEBF0FBECDBF1A8261
S11302601982FE01339628E0DF011D922A95E9F7F1
S11302708E010F5F1F4F21E043E00E94BF0F898171
S1130280C6DF8A81C4DF8B81C2DF8C81C0DF8D81B0
S1130290BEDF8E81BCDF2A960FB6F894DEBF0FBE98
S11302A0CDBFDF91CF911F910F910895ACDF80E80E
S11302B08BBB92DF84E191E0B1DF609182057091A4
S11302C083058091840590918505BDDF80EC8BBB0F
S11302D083DF81E291E0A2DF60917A0570917B0572
S11302E080917C0590917D05AEDF84E98BBB74DF42
S11302F080E391E093DF60917605709177058091BA
S11303007805909179059FCF089583E389B9109278
S113031090008EE08093950088E18AB908955D9BF2
S1130320FECF8CB90895CF93DF93EC0188818823A5
S113033029F02196F4DF89918111FCCFDF91CF91CF
S113034008955F9BFECF8BB18CB108950F931F93DB
S1130350CF93DF93CDB7DEB72A970FB6F894DEBFFD
S11303600FBECDBF1A821982FE01339628E0DF0149
S11303701D922A95E9F78E010F5F1F4F21E043E09C
S11303800E94BF0F8981CBDF8A81C9DF8B81C7DFE0
S11303908C81C5DF8D81C3DF8E81C1DF2A960FB6C4
S11303A0F894DEBF0FBECDBFDF91CF911F910F91A7
S11303B0089587E082BB2FE78AE196E021508040D0
S11303C09040E1F700C000008DE082BB2FE78AE196
S11303D096E0215080409040E1F700C0000089E1A0
S11303E082BB2FE78AE196E0215080409040E1F7FC
S11303F000C0000083E182BB2FE78AE196E0215030
S113040080409040E1F700C0000008952F923F9291
S11304104F925F926F927F928F929F92AF92BF9210
S1130420CF92DF92EF92FF920F931F93CF93DF93BC
S113043000D000D0CDB7DEB78FEF9FEF9A838983CA
S11304409C838B8300E010E00F2EF2E6EF2EF12C5C
S1130450F02D0F2EFEEF5F2EF02D6894662461F8C8
S1130460712CCC24C394D12C0F2EFDEF4F2EF02DE4
S11304706894AA24A2F8B12C0F2EFBEF3F2EF02D86
S11304800F2EF7E08F2E912CF02DF7015082049956
S11304901DC081E3BCDEF801EE0FFF1F81E090E098
S11304A08C0F9D1FE80FF91FD182C0820F5F1F4F71
S11304B0023011050CF02BC19FE7EAE1F6E0915000
S11304C0E040F040E1F700C000003FC005991DC0C6
S11304D082E39DDEF801EE0FFF1F81E090E08C0FB8
S11304E09D1FE80FF91F718260820F5F1F4F02305A
S11304F011050CF00CC19FE7EAE1F6E09150E040F1
S1130500F040E1F700C0000020C006991EC083E35C
S11305107EDEF801EE0FFF1F81E090E08C0F9D1F3F
S1130520E80FF91F83E090E0918380830F5F1F4FF2
S1130530023011050CF0EBC09FE7EAE1F6E09150C0
S1130540E040F040E1F700C00000F7014082049968
S11305501DC084E35CDEF801EE0FFF1F81E090E034
S11305608C0F9D1FE80FF91FB182A0820F5F1F4FF0
S1130570023011050CF0CBC09FE7EAE1F6E09150A0
S1130580E040F040E1F700C0000041C005991FC001
S113059085E33DDEF801EE0FFF1F81E090E08C0F54
S11305A09D1FE80FF91F85E090E0918380830F5F22
S11305B01F4F023011050CF0AAC09FE7EAE1F6E0F4
S11305C09150E040F040E1F700C0000020C00699DF
S11305D01EC086E31CDEF801EE0FFF1F81E090E0F1
S11305E08C0F9D1FE80FF91F86E090E091838083B4
S11305F00F5F1F4F023011050CF089C09FE7EAE13D
S1130600F6E09150E040F040E1F700C00000F7014F
S1130610308204991DC087E3FADDF801EE0FFF1F55
S113062081E090E08C0F9D1FE80FF91F918280827A
S11306300F5F1F4F023011050CF069C09FE7EAE11C
S1130640F6E09150E040F040E1F700C0000040C007
S113065005991FC088E3DBDDF801EE0FFF1F81E081
S113066090E08C0F9D1FE80FF91F88E090E09183C4
S113067080830F5F1F4F023011050CF048C09FE7C5
S1130680EAE1F6E09150E040F040E1F700C00000FC
S11306901FC006991DC089E3BADDF801EE0FFF1FE4
S11306A081E090E08C0F9D1FE80FF91F89E090E036
S11306B0918380830F5F1F4F0230110544F59FE73C
S11306C0EAE1F6E09150E040F040E1F700C00000BC
S11306D087EFF7018083049918C018BA0F2EF3E14D
S11306E02F2EF02D2BBA78DD80E291DD0150110917
S11306F0FFE72AE186E0F15020408040E1F700C0A6
S1130700000018BA2BBA68DDC0CE069933C08981BF
S11307109A8199232CF0092E000CAA0BBB0B03C061
S113072080E090E0DC014B815C815523D4F0880F9C
S1130730991FAA1FBB1F8C019D01000F111F221FAF
S1130740331F000F111F221F331F800F911FA21F81
S1130750B31F052E000C660B770B840F951FA61F85
S1130760B71F8093BA059093BB05A093BC05B093C3
S1130770BD051FC0059989CE80E349DDF801EE0F60
S1130780FF1F81E090E08C0F9D1FE80FF91F11827D
S113079010820F5F1F4F023011050CF0B8CF9FE796
S11307A0EAE1F6E09150E040F040E1F700C00000DB
S11307B06CCE0F900F900F900F90DF91CF911F91FF
S11307C00F91FF90EF90DF90CF90BF90AF909F90EC
S11307D08F907F906F905F904F903F902F900895EF
S11307E02F923F924F925F926F927F928F929F923D
S11307F0AF92BF92CF92DF92EF92FF920F931F932B
S1130800CF93DF93CDB7DEB764970FB6F894DEBF0E
S11308100FBECDBF84E1E0E0F1E0DE01119601906E
S11308200D928A95E1F700E010E00F2EF2E6EF2E2C
S1130830F12CF02D0F2EFEEF3F2EF02D6894662440
S113084061F8712C88248394912C0F2EFDEF4F2E88
S1130850F02D6894AA24A2F8B12C0F2EFBEF5F2E82
S1130860F02D0F2EF7E0CF2ED12CF02DF701308292
S1130870049919C081E3CBDCF801EE0FFF1F81E07E
S113088090E08C0F9D1FE80FF91F918280820F5F0B
S11308901F4F9FE7EAE1F6E09150E040F040E1F7B6
S11308A000C0000037C0059919C082E3B0DCF8012C
S11308B0EE0FFF1F81E090E08C0F9D1FE80FF91FE2
S11308C0718260820F5F1F4F9FE7EAE1F6E091506B
S11308D0E040F040E1F700C000001CC006991AC0D7
S11308E083E395DCF801EE0FFF1F81E090E08C0FAD
S11308F09D1FE80FF91F83E090E0918380830F5FD1
S11309001F4F9FE7EAE1F6E09150E040F040E1F745
S113091000C00000F7014082049919C084E377DC29
S1130920F801EE0FFF1F81E090E08C0F9D1FE80F90
S1130930F91FB182A0820F5F1F4F9FE7EAE1F6E043
S11309409150E040F040E1F700C0000039C0059943
S11309501BC085E35CDCF801EE0FFF1F81E090E033
S11309608C0F9D1FE80FF91F85E090E09183808331
S11309700F5F1F4F9FE7EAE1F6E09150E040F0403F
S1130980E1F700C000001CC006991AC086E33FDCF2
S1130990F801EE0FFF1F81E090E08C0F9D1FE80F20
S11309A0F91F86E090E0918380830F5F1F4F9FE7DC
S11309B0EAE1F6E09150E040F040E1F700C00000C9
S11309C0F7015082049919C087E321DCF801EE0F86
S11309D0FF1F81E090E08C0F9D1FE80FF91FD1826B
S11309E0C0820F5F1F4F9FE7EAE1F6E09150E040BD
S11309F0F040E1F700C0000039C005991BC088E34E
S1130A0006DCF801EE0FFF1F81E090E08C0F9D1FC4
S1130A10E80FF91F88E090E0918380830F5F1F4FF8
S1130A209FE7EAE1F6E09150E040F040E1F700C0D2
S1130A3000001CC006991AC089E3E9DBF801EE0F37
S1130A40FF1F81E090E08C0F9D1FE80FF91F89E0E4
S1130A5090E0918380830F5F1F4F9FE7EAE1F6E008
S1130A609150E040F040E1F700C0000087EFF7014B
S1130A708083049918C018BA0F2EF3E12F2EF02D9D
S1130A802BBAAADB80E2C3DB01501109FFE72AE19C
S1130A9086E0F15020408040E1F700C0000018BA21
S1130AA02BBA9ADBE3CE06992AC0FE013196AE0139
S1130AB04B5E5F4F80E090E0DC0121913191332364
S1130AC0D4F0880F991FAA1FBB1F6C017D01CC0CA9
S1130AD0DD1CEE1CFF1CCC0CDD1CEE1CFF1CC80E28
S1130AE0D91EEA1EFB1EC901330FAA0BBB0B8C0DCA
S1130AF09D1DAE1DBF1DE417F507F9F61BC0059932
S1130B00B5CE80E384DBF801EE0FFF1F81E090E0B7
S1130B108C0F9D1FE80FF91F118210820F5F1F4F6A
S1130B209FE7EAE1F6E09150E040F040E1F700C0D1
S1130B3000009CCE8093BA059093BB05A093BC059E
S1130B40B093BD0564960FB6F894DEBF0FBECDBF5B
S1130B50DF91CF911F910F91FF90EF90DF90CF9095
S1130B60BF90AF909F908F907F906F905F904F90C9
S1130B703F902F900895CF92DF92EF92FF92BC01A5
S1130B80990F880B990B0E94A30E6B017C01DEDB8D
S1130B9020E030E048EC52E4C701B6010E94080EA0
S1130BA0FF90EF90DF90CF900895CF92DF92EF9275
S1130BB0FF920F931F93CF93DF9325DBD0E8DBBB2A
S1130BC00BDB8FE391E02ADBC0ECCBBB05DB08DE5B
S1130BD00AEB15E0F80160817181072E000C880B87
S1130BE0990B0E94A30E6B017C01B0DBC092B2058D
S1130BF0D092B305E092B405F092B505C092A20577
S1130C00D092A305E092A405F092A5058FE991E0A6
S1130C108ADB8DE084DB8AE082DBF5DADBBBDCDABD
S1130C2082E591E0FBDACBBBD7DADADDF80160814B
S1130C307181072E000C880B990B0E94A30E6B0187
S1130C407C0184DBC092AE05D092AF05E092B00582
S1130C50F092B105C0929E05D0929F05E092A00546
S1130C60F092A1058EEB91E05EDBCBBBB5DA8DE0B3
S1130C7056DB8AE054DBC7DADBBBAEDA85E691E00B
S1130C80CDDACBBBA9DAACDDF80160817181072E26
S1130C90000C880B990B0E94A30E6B017C0156DBA0
S1130CA0C092AA05D092AB05E092AC05F092AD05D6
S1130CB0C0929A05D0929B05E0929C05F0929D0506
S1130CC08CED91E030DB8DE02ADB8AE028DB9BDAD7
S1130CD0DBBB82DA87E791E0A1DACBBB7DDA80DD8A
S1130CE0F80160817181072E000C880B990B0E941A
S1130CF0A30E6B017C012ADBC092A605D092A70546
S1130D00E092A805F092A905C0929605D0929705A5
S1130D10E0929805F092990589EF91E004DBCBBB52
S1130D205BDA8DE0FCDA8AE0FADA6DDADBBB54DAFE
S1130D3089E891E073DACBBB4FDA68DBF801808194
S1130D40918119DF609392057093930580939405C4
S1130D50909395058DE991E0E6DA8DE0E0DA8AE09A
S1130D60DEDA51DADBBB38DA88EA91E057DACBBB5A
S1130D7033DA4CDBF80180819181FDDE60938E05CE
S1130D8070938F0580939005909391058CEB91E07F
S1130D90CADA8DE0C4DA8AE0C2DA35DADBBB1CDAFF
S1130DA087EC91E03BDACBBB17DA30DBF8018081CA
S1130DB09181E1DE60938A0570938B0580938C05A5
S1130DC090938D058AED91E0AEDA8DE0A8DA8AE0A1
S1130DD0A6DA19DADBBB00DA84EE91E01FDACBBBCA
S1130DE0FBD914DBF80180819181C5DE609386050F
S1130DF070938705809388059093890587EF91E028
S1130E0092DA8DE08CDA8AE08ADAFDD9CBBBE4D9B8
S1130E1081E092E003DADF91CF911F910F91FF906F
S1130E20EF90DF90CF9008958DE079DA8AE077DA59
S1130E306091A6057091A7058091A8059091A905D8
S1130E4085DA89EF91E06FDA8DE069DA8AE067DAB2
S1130E506091AE057091AF058091B0059091B10598
S1130E6075DA8EEB91E05FDA8DE059DA8AE057DAD1
S1130E706091B2057091B3058091B4059091B50568
S1130E8065DA8FE991E04FDA8DE049DA8AE047DAF2
S1130E906091AA057091AB058091AC059091AD0568
S1130EA055DA8CED91E03FDA8DE039DA8AE037CA21
S1130EB008958DE034DA8AE032DA6091B70570E0A3
S1130EC080E090E03ED742DA84E192E02CDA8DE0D3
S1130ED026DA8AE024CA08958DE021DA8AE01FDA4E
S1130EE06091B60570E080E090E02BD72FDA84E1C2
S1130EF092E019DA8DE013DA8AE011CA08952F928C
S1130F003F924F925F926F927F928F929F92AF9295
S1130F10BF92CF92DF92EF92FF920F931F93CF93E2
S1130F20DF93CDB7DEB764970FB6F894DEBF0FBE7C
S1130F30CDBF69837A838B839C832D833E834F83C8
S1130F405887E986FA860B871C87AD86BE86CF86CE
S1130F50D88A09E010E0212C312C29813A814B8177
S1130F605C8169A57AA58BA59CA59DD7B9D62B01D3
S1130F703C012D813E814F8158856DA97EA98FA9A1
S1130F8098AD91D7ADD64B015C0129853A854B8547
S1130F905C856DA57EA58FA598A985D7A1D66B0183
S1130FA07C012D853E854F85588969A97AA98BA92D
S1130FB09CA979D795D6698B7A8B8B8B9C8B240CC7
S1130FC0351C280C391C2C0C3D1C29893A89220E0D
S1130FD0331EB201550C880B990BB5D69B01AC019D
S1130FE069817A818B819C81AAD569837A838B8379
S1130FF09C83B401990C880B990BA5D69B01AC0179
S11310006D817E818F8198859AD56D837E838F8350
S11310109887B601DD0C880B990B95D69B01AC0122
S113102069857A858B859C858AD569877A878B873C
S11310309C87A989BA89BD01BB0F880B990B83D6FC
S11310409B01AC016D857E858F85988978D56D87E8
S11310507E878F87988B0150110909F07ECFB101EB
S1131060330C880B990B6FD620E030E046E153E453
S11310701AD720E030E84BE355E4CAD56B017C0174
S113108065D9C0928205D0928305E0928405F092DE
S1131090850589819A81AB81BC818093A605909353
S11310A0A705A093A805B093A9058D819E81AF8162
S11310B0B8858093AE059093AF05A093B005B09327
S11310C0B10589859A85AB85BC858093B2059093DB
S11310D0B305A093B405B093B5058D859E85AF8502
S11310E0B8898093AA059093AB05A093AC05B093FF
S11310F0AD05C701B60164960FB6F894DEBF0FBE06
S1131100CDBFDF91CF911F910F91FF90EF90DF90B2
S1131110CF90BF90AF909F908F907F906F905F9093
S11311204F903F902F900895CF92DF92EF92FF92CD
S1131130CF93DF93EC01CB01BA0120E030E04AE722
S113114054E4B1D66B017C01BE010D2E000C880B5A
S1131150990BF9D59B01AC01C701B60159D5C0D58E
S1131160CC32D14091F47093810560938005072EB1
S1131170000C880B990BE7D5E9D88DE192E0D3D820
S11311808DE0CDD88AE0CBD811C070937F056093F1
S11311907E05072E000C880B990BD5D5D7D88AE38A
S11311A092E0C1D88DE0BBD88AE0B9D8DF91CF9165
S11311B0FF90EF90DF90CF90089540917A05509181
S11311C07B0560917C0570917D0580E090E00E9434
S11311D031124091760550917705609178057091B0
S11311E0790584E090E00E9431124091820550918B
S11311F08305609184057091850588E090E00E94E4
S1131200311240919605509197056091980570911F
S113121099058CE090E00E94311240919E05509116
S11312209F056091A0057091A10580E190E00E9466
S1131230311240919A0550919B0560919C057091E3
S11312409D0584E190E00E9431124091A2055091E5
S1131250A3056091A4057091A50588E190E00E9422
S113126031124091860550918705609188057091EF
S113127089058CE190E00E94311240918E055091D5
S11312808F05609190057091910580E290E00E9435
S1131290311240918A0550918B0560918C057091B3
S11312A08D0584E290E00E943112409192055091A4
S11312B09305609194057091950588E290E00E94F1
S11312C0311280E090E00E942C1220917A05309136
S11312D07B0540917C0550917D0596D481110CC00D
S11312E08DE01DD88AE01BD887E592E01CD88DE0FC
S11312F016D88AE014C808958DE011D88AE00FD872
S11313008DE692E010C80895CF92DF92EF92FF929B
S113131080E090E00E942C126B017C0160937A05BE
S113132070937B0580937C0590937D0584E090E029
S11313300E942C126093760570937705809378054C
S11313409093790588E090E00E942C1260938205C6
S11313507093830580938405909385058CE090E0D9
S11313600E942C126093A6057093A7058093A8058C
S11313709093A90580E190E00E942C126093AE0541
S11313807093AF058093B0059093B10584E190E02C
S11313900E942C126093AA057093AB058093AC0550
S11313A09093AD0588E190E00E942C126093B20501
S11313B07093B3058093B4059093B5058CE190E0E8
S11313C00E942C126093860570938705809388058C
S11313D09093890580E290E00E942C1260938E0520
S11313E070938F05809390059093910584E290E02B
S11313F00E942C1260938A0570938B0580938C0550
S113140090938D0588E290E00E942C1260939205DF
S113141070939305809394059093950580E090E0F4
S11314200E942C129B01AC01C701B601EDD38111BE
S113143013C08DE00E948F018AE00E948F0181E831
S113144092E00E9493010E9456018DE00E948F0158
S11314508AE00E948F0110C08DE00E948F018AE013
S11314600E948F0189E992E00E9493018DE00E941D
S11314708F018AE00E948F01FF90EF90DF90CF9060
S113148008958F929F92AF92BF92CF92DF92EF9284
S1131490FF921F93CF93DF93809902C16B017C016C
S11314A02FE78AE196E0215080409040E1F700C0A8
S11314B0000020E030E046E953E4C701B601A4D3BC
S11314C081110BC08FEA92E00E9493018DE00E948B
S11314D08F018AE00E948F010AC08FEC92E00E9483
S11314E093018DE00E948F018AE00E948F0120E029
S11314F030E04AE754E4C701B6018AD34B015C01EA
S11315002091820530918305409184055091850591
S11315107BD388230CF0B4C00E94D9018FEE92E0F3
S11315200E9493018DE00E948F018AE00E948F0146
S1131530E5E6F0E082E080832FEF89E698E1215030
S113154080409040E1F700C0000081E080832FEFED
S113155089E698E1215080409040E1F700C0000006
S113156010820E94D901A5019401609182057091B5
S113157083058091840590918505E1D2609382056D
S113158070938305809384059093850520E030E073
S113159046E953E4C701B60137D381111FC08091D6
S11315A08005909181050197909381058093800532
S11315B020E030E040E85FE360917A0570917B05BC
S11315C080917C0590917D05BBD260937A057093E0
S11315D07B0580937C0590937D051EC080917E05DC
S11315E090917F05019790937F0580937E0520E07D
S11315F030E040E85FE36091760570917705809173
S11316007805909179059CD260937605709377055F
S113161080937805909379050E94560181E093E0C8
S11316200E9493018DE00E948F018AE00E948F0145
S1131630C5E6D0E011E018832FEF89E698E1215048
S113164080409040E1F700C0000018820E94D90158
S11316500E94D90183E193E00E9493018DE00E94EE
S11316608F018AE00E948F0118832FEF89E698E1A9
S1131670215080409040E1F700C00000188210C063
S11316808DE00E948F018AE00E948F0186E293E040
S11316900E9493018DE00E948F018AE00E948F01D5
S11316A0DF91CF911F91FF90EF90DF90CF90BF908B
S11316B0AF909F908F9008951F920F920FB60F9244
S11316C011248F938091B9058F5F8093B9058A3770
S11316D040F08091B7058F5F8093B70512BE1092DA
S11316E0B9058F910F900FBE0F901F9018951F9200
S11316F00F920FB60F9211248F938091B8058F5FCC
S11317008093B8058A3740F08091B6058F5F809347
S1131710B60514BC1092B8058F910F900FBE0F90B0
S11317201F90189580E88BBB0E94EC0088E493E03E
S11317300E940E0180EC8BBB0E94EC0089E593E0D3
S11317400E940E0184E98BBB0E94EC0084E693E0C6
S11317500E940E012FEF83ED90E3215080409040D2
S1131760E1F700C0000021CA08958CEF84BB8EEF1E
S113177081BB82B98FE8809361008FE0809364001D
S113178084E085BB81E082BBF89478940E94850153
S113179088E793E00E9493018DE00E948F018AE024
S11317A00E948F010E94F50080E88BBB0E94EC0030
S11317B082E993E00E940E012FEF8EE994E221501A
S11317C080409040E1F700C000000E9403018DE0DA
S11317D00E948F018AE00E948F0184EA93E00E94B4
S11317E093018DE00E948F018AE00E948F018FEBAC
S11317F093E00E9493018DE00E948F018AE00E9491
S11318008F0184ED93E00E9493018DE00E948F018B
S11318108AE00E948F010E94A101C82F0E948F01BB
S11318208DE00E948F018AE00E948F01C93551F03A
S113183018F4CE3459F00CC0CE3631F0C93741F427
S113184063DD11C061DD0FC06DDF0DC06BDF0BC048
S11318508DE00E948F018AE00E948F018CEE93E05C
S11318600E949301BECF8BEF93E00E9493018DE021
S11318700E948F018AE00E948F0183E194E00E941C
S11318809301A090AA05B090AB05C090AC05D09090
S1131890AD05E090B205F090B3050091B405109148
S11318A0B5052091AE053091AF054091B00550913A
S11318B0B1056091A6057091A7058091A805909146
S11318C0A905E0919105EF93E0919005EF93E091E4
S11318D08F05EF93E0918E05EF93E0918D05EF93E3
S11318E0E0918C05EF93E0918B05EF93E0918A05ED
S11318F0EF93E0919505EF93E0919405EF93E091D8
S11319009305EF93E0919205EF93E0918905EF93AE
S1131910E0918805EF93E0918705EF93E0918605C8
S1131920EF93EDDA88E294E00E9493018DE00E9447
S11319308F018AE00E948F014091820550918305B6
S113194060918405709185058CE291E0EDDB409116
S1131950820550918305609184057091850584EF1B
S113196091E0E2DB12BE14BC8DB79EB740960FB671
S1131970F8949EBF0FBE8DBFD9E0C1E198990DC008
S1131980C5BB83B7846083BF87B7816087BF60E0CE
S113199070E086E993E475DDF1CF99990DC0D5BB6C
S11319A083B7846083BF87B7816087BF60E070E0DE
S11319B08AEF93E466DDE2CF989BE0CF989BDECF7D
S11319C085B5846085BD87B7806487BF0AD09FEFE3
S11319D029E688E1915020408040E1F700C00000F2
S11319E0CDCFCF938DE00E948F018AE00E948F01BA
S11319F080E394E00E9493018DE00E948F018AE0CD
S1131A000E948F0184E594E00E9493018DE00E947E
S1131A108F018AE00E948F0183E794E00E94930182
S1131A208DE00E948F018AE00E948F0181EA94E098
S1131A300E9493018DE00E948F018AE00E948F0131
S1131A408CEB94E00E9493018DE00E948F018AE068
S1131A500E948F0183ED94E00E9493018DE00E9427
S1131A608F018AE00E948F0180EF94E00E9493012D
S1131A708DE00E948F018AE00E948F018FE095E043
S1131A800E9493018DE00E948F018AE00E948F01E1
S1131A9089E295E00E9493018DE00E948F018AE023
S1131AA00E948F018DE00E948F018AE00E948F01C5
S1131AB081E495E00E9493010E94A101C82F0E9435
S1131AC08F018C2F90E0FC01F197E930F105D0F4FF
S1131AD0EA5BFF4F4BC20E9456011FC00E94560191
S1131AE01CC0A2D91AC0E5D918C0F6D916C065DB46
S1131AF014C00ADC12C08DE00E948F018AE00E94AB
S1131B008F0133DE8DE00E948F018AE00E948F01F5
S1131B1089E595E00E94930165CF8DE00E948F01D5
S1131B208AE00E948F018AE695E00E9493018DE08D
S1131B300E948F018AE00E948F01CF91089550582E
S1131B40BB27AA270ED075C166D130F06BD120F027
S1131B5031F49F3F11F41EF45BC10EF4E095E7FBF2
S1131B6051C1E92F77D180F3BA176207730784074D
S1131B70950718F071F49EF58FC10EF4E0950B2EC5
S1131B80BA2FA02D0B01B90190010C01CA01A001CB
S1131B901124FF27591B99F0593F50F4503E68F126
S1131BA01A16F040A22F232F342F4427585FF3CF67
S1131BB0469537952795A795F0405395C9F77EF438
S1131BC01F16BA0B620B730B840BBAF09150A1F081
S1131BD0FF0FBB1F661F771F881FC2F70EC0BA0F07
S1131BE0621F731F841F48F4879577956795B7958F
S1131BF0F7959E3F08F0B3CF9395880F08F0992787
S1131C00EE0F979587950895D9D008F481E008954B
S1131C100CD00FC107D140F0FED030F021F45F3F6B
S1131C2019F0F0C0511139C1F3C014D198F39923BC
S1131C30C9F35523B1F3951B550BBB27AA2762178C
S1131C407307840738F09F5F5F4F220F331F441FD1
S1131C50AA1FA9F333D00E2E3AF0E0E830D0915009
S1131C605040E695001CCAF729D0FE2F27D0660FF6
S1131C70771F881FBB1F261737074807AB07B0E835
S1131C8009F0BB0B802DBF01FF2793585F4F2AF04B
S1131C909E3F510568F0B6C000C15F3FECF3983E2B
S1131CA0DCF3869577956795B795F7959F5FC9F7A8
S1131CB0880F911D9695879597F90895E1E0660F31
S1131CC0771F881FBB1F621773078407BA0720F0AA
S1131CD0621B730B840BBA0BEE1F88F7E095089513
S1131CE004D06894B111D9C00895BCD088F09F572E
S1131CF090F0B92F9927B751A0F0D1F0660F771F54
S1131D00881F991F1AF0BA95C9F712C0B13081F033
S1131D10C3D0B1E00895C0C0672F782F8827B85F7B
S1131D2039F0B93FCCF3869577956795B395D9F794
S1131D303EF490958095709561957F4F8F4F9F4F9E
S1131D400895E89409C097FB3EF4909580957095AA
S1131D5061957F4F8F4F9F4F9923A9F0F92F96E9F3
S1131D60BB279395F695879577956795B795F11168
S1131D70F8CFFAF4BB0F11F460FF1BC06F5F7F4F05
S1131D808F4F9F4F16C0882311F096E911C0772317
S1131D9021F09EE8872F762F05C0662371F096E820
S1131DA0862F70E060E02AF09A95660F771F881FEF
S1131DB0DAF7880F9695879597F90895990F000893
S1131DC0550FAA0BE0E8FEEF16161706E807F90709
S1131DD0C0F012161306E407F50798F0621B730BA4
S1131DE0840B950B39F40A2661F0232B242B252B25
S1131DF021F408950A2609F4A140A6958FEF811DC8
S1131E00811D089597F99F6780E870E060E0089568
S1131E109FEF80EC089500240A94161617061806FE
S1131E200906089500240A941216130614060506DA
S1131E300895092E0394000C11F4882352F0BB0F6B
S1131E4040F4BF2B11F460FF04C06F5F7F4F8F4FCE
S1131E509F4F089557FD9058440F551F59F05F3F09
S1131E6071F04795880F97FB991F61F09F3F79F0B8
S1131E7087950895121613061406551FF2CF46953A
S1131E80F1DF08C0161617061806991FF1CF8695BC
S1131E907105610508940895E894BB2766277727A0
S1131EA0CB0197F908950BD0C4CFB5DF28F0BADF82
S1131EB018F0952309F0A6CFABCF1124EECFCADFDB
S1131EC0A0F3959FD1F3950F50E0551F629FF00149
S1131ED0729FBB27F00DB11D639FAA27F00DB11DA2
S1131EE0AA1F649F6627B00DA11D661F829F22272B
S1131EF0B00DA11D621F739FB00DA11D621F839FB2
S1131F00A00D611D221F749F3327A00D611D231F87
S1131F10849F600D211D822F762F6A2F11249F57D5
S1131F2050408AF0E1F088234AF0EE0FFF1FBB1FF8
S1131F30661F771F881F91505040A9F79E3F510597
S1131F4070F060CFAACF5F3FECF3983EDCF3869548
S1131F5077956795B795F795E7959F5FC1F7FE2B42
S1131F60880F911D9695879597F90895EE0FFF1F99
S1131F700024001C0BBE0790F691E02D0994EF920B
S1131F800F931F93CF93DF93E80147FD02C034E022
S1131F9001C034E1042E000C550B57FF03C05195CA
S1131FA041955109E32E022F242FAE0107D0CE0113
S1131FB0DF91CF911F910F91EF9008958F929F928F
S1131FC0AF92BF92CF92DF92EF92FF920F931F9343
S1131FD0CF93DF93CDB7DEB729970FB6F894DEBF62
S1131FE00FBECDBF6A01122FB02E2BE3201720F0B5
S1131FF0FF24F394F00E02C02CE3F22E0F2D27E001
S1132000AE014F5F5F4F50D1BC014981842F89706D
S1132010813031F0E1FC06C0E0FE06C090E205C06C
S11320209DE203C09BE201C090E05E2D507143FF2E
S11320303CC0911102C083E001C084E0811718F410
S1132040212F281B01C020E051110BC0F601822F63
S113205030E2882319F031938150FBCFC20ED11C9A
S113206020E0992329F0D6019C93F60131966F0163
S1132070C6010396E2FE0AC03EE4D6013C9341E465
S113208011964C93119712963C9306C03EE6F601C6
S1132090308341E641833283FC01322F40E2332313
S11320A009F442C041933150FACF42FF44C0911128
S11320B002C083E001C084E0811718F4212F281B9B
S11320C001C020E051110BC0F601822F30E28823B9
S11320D019F031938150FBCFC20ED11C20E099231B
S11320E029F0D6019C93F60131966F01C60103963F
S11320F0E2FE0BC039E4D6013C933EE411963C93D6
S1132100119736E412963C9307C039E6F601308302
S11321103EE6318336E63283FC01322F40E233233C
S113212019F041933150FBCFFC01E20FF11D1082F5
S11321308EEF9FEFA6C021E030E0911102C020E0B5
S113214030E0161617061CF4FB01319602C0E1E0DC
S1132150F0E02E0F3F1FBB2021F0EB2DF0E0319675
S113216002C0E0E0F0E02E0F3F1FE12FF0E02E1759
S11321703F071CF4121B212F01C020E08E2D887113
S113218059F4F601822F30E2882319F031938150FB
S1132190FBCFC20ED11C20E0992329F0D6019C93D9
S11321A0F60131966F0151110BC0F601822F90E3B5
S11321B0882319F091938150FBCFC20ED11C20E0EB
S11321C00F2D060F9A81342F307144FF03C09133D1
S11321D009F40150101624F4093018F008E001C085
S11321E001E0AB0177FF02C040E050E0FB01E41BDB
S11321F0F50BA1E0B0E0AC0FBD1FEA0FFB1F8EE2B0
S1132200A82E4B01801A91080B2D10E01195019511
S113221011094F3FBFEF5B0721F4D601AC92119631
S11322206D01641775072CF08416950614F48181EA
S113223001C080E3415051093196D60111967D01C8
S11322404017510724F0D6018C936701E2CF64173D
S1132250750739F4963320F4953319F4311101C01C
S113226081E3F6018083F701822F90E2882319F03D
S113227091938150FBCFF701E20FF11D108280E0B2
S113228090E029960FB6F894DEBF0FBECDBFDF9164
S1132290CF911F910F91FF90EF90DF90CF90BF905F
S11322A0AF909F908F900895283008F027E033274F
S11322B0DA01990F311D87FD916000966105710562
S11322C039F432602E5F3D9330E32A95E1F70895A7
S11322D09F3F30F080387105610509F03C5F3C5F39
S11322E03D93913008F08068911DDF93CF931F9345
S11322F00F93FF92EF92192F987F9695E92F969559
S11323009695E90FFF27E850FF4F99273327EE24CE
S1132310FF24A701E70105900894079428F4360FD9
S1132320E71EF81E491F511D660F771F881F991F4E
S11323300694A1F70590079428F4E70EF81E491FA8
S1132340561FC11D770F881F991F661F0694A1F79A
S11323500590079428F4F80E491F561FC71FD11D76
S1132360880F991F661F771F0694A1F7059007949D
S113237020F4490F561FC71FD81F990F661F771FD8
S1132380881F0694A9F784911095177041F0D6958B
S1132390C79557954795F794E7941A95C1F7EEE9D1
S11323A0F0E068941590159135916591959105909B
S11323B07FE27395E118F10A430B560BC90BD00960
S11323C0C0F7E10CF11E431F561FC91FD01D7EF438
S11323D0703311F48A95E6CFE894015030F0080F79
S11323E00AF40027021708F4202F2395022F7A33CA
S11323F028F079E37D932A95E9F710C07D932A9517
S113240089F6069497956795379517951794E1186B
S1132410F10A430B560BC90BD00998F023957E9112
S113242073957A3308F070E37C932013B8F77E91A8
S113243070617D9330F0839571E37D9370E32A9509
S1132440E1F71124EF90FF900F911F91CF91DF914D
S1132450992787FD90950895A6E1B0E044E050E007
S11324600AC0242F17D0252F15D000C012D0272F33
S113247011C0DC01CB01FC01E199FECF06C0FFBB1A
S1132480EEBBE09A31960DB20D9241505040B8F730
S11324900895262FE199FECF9FBB8EBB2DBB0FB6AF
S11324A0F894E29AE19A0FBE01960895F894FFCF4A
S11324B0FFFFFFFFFFFFFFFFFFFFFFFFFFFFFFFF28
S11324C0FFFFFFFF4C6974726573206C6566742DA1
S11324D0003330306D6C2066696C6C65642D2000AF
S11324E03530306D6C2066696C6C65642D2000514C
S11324F075616E746974792D2D4F52414E47455361
S11325003A005175616E746974792D2D4D414E47B1
S11325104F45533A005175616E746974792D2D4796
S113252055415641533A005175616E746974792D61
S11325302D4150504C45533A0050455243454E545A
S1132540414745204F52414E4745533A00202520EC
S11325504F72616E6765730050455243454E544156
S11325604745204D414E474F45533A002025204DC5
S1132570616E676F65730050455243454E54414741
S113258045204755415641533A002025204775615F
S11325907661730050455243454E544147452041AE
S11325A050504C45533A002025204170706C65739F
S11325B000434F4E46494755524154494F4E2044DB
S11325C04F4E4500205365636F6E647300203330B3
S11325D0306D6C20626F74746C65732063616E205F
S11325E062652066696C6C656400203530306D6C02
S11325F020626F74746C65732063616E2062652061
S113260066696C6C65640053455454494E472053C5
S113261041564520434F4D504C4554450053455475
S113262054494E472053415645204641494C454460
S11326300053455454494E4720524553554D452067
S1132640434F4D504C4554450053455454494E470F
S113265020524553554D45204641494C454400338D
S113266030306D6C20426F74746C65206F706572CD
S11326706174696F6E2073656C656374656400359D
S113268030306D6C20426F74746C65206F706572AD
S11326906174696F6E2073656C6563746564004270
S11326A06F74746C652046696C6C696E672E2E2E8F
S11326B000426F74746C65205365616C696E672E9B
S11326C02E2E00426F74746C6520696E2053746FF3
S11326D0726167652E00416C6572742121204A7510
S11326E0696365206C6576656C2062656C6F772024
S11326F06D696E696D616C00434F4E464947555292
S1132700452053595354454D00555345204B455985
S113271050414400416674657220696E707574207E
S1132720707265737320230057454C434F4D452009
S1132730544F204D41434B20424556455241474555
S11327405300504C414E5420494E495449414C4940
S11327505A45440050524556494F55532053455409
S113276054494E475320444554454354454400522C
S11327706573756D65207468697320536574746935
S11327806E673F00592D2D2879657329202020205C
S1132790202020204E2D2D286E6F2900496E766151
S11327A06C69642043686F69636500436F6E666992
S11327B06775726174696F6E7320436F6D706C65B9
S11327C0746500506C616E742077696C6C20707253
S11327D06F636573733A20004C69747265732E00DD
S11327E03E2031203A20446973706C617920416D38
S11327F06F756E74206C65667420696E204C697404
S1132800657273003E2032203A204E756D62657207
S1132810206F6620426F74746C65732046696C6C1B
S11328206564003E2033203A20416D6F756E74203C
S11328306F66206672756974206C656674206166C3
S1132840746572206D6978696E67206472696E6B55
S1132850003E2034203A20506C616E74204F706525
S1132860726174696F6E2054696D65003E20352075
S11328703A20506C616E7420526573742054696DF3
S11328806520003E2036203A20536176652043754A
S11328907272656E742053657474696E6773200078
S11328A03E2037203A20526573756D65205072655D
S11328B076696F75732053657474696E6720003E82
S11328C02038203A2052652D436F6E666967757211
S11328D06520506C616E7420003E2039203A2052ED
S11328E06573756D65204F7065726174696F6E20D4
S11328F0003E2053656C656374204F7074696F6E7D
S11329002028312D39293A200020496E76616C69DE
S113291064206F7074696F6E21002046696E69735C
S10929206865642E2E0020
S90305C037
